:1000000077C50000A6C50000A4C50000A2C5000079
:10001000A0C500009EC500009CC500009AC5000058
:1000200098C5000096C5000094C5000092C5000068
:1000300090C500008EC500008CC500008AC5000078
:1000400088C5000086C5000084C5000082C5000088
:1000500080C500007EC500007CC50000C5C600004C
:1000600078C5000076C5000074C5000072C50000A8
:1000700070C500006EC500006CC500006AC50000B8
:1000800068C5000066C5000064C5000062C50000C8
:1000900060C500005EC500005CC500005AC50000D8
:1000A00058C5000056C5000054C5000052C50000E8
:1000B00050C500004EC500004CC500004AC50000F8
:1000C00048C5000046C5000044C5000042C5000008
:1000D00040C500003EC500003CC500003AC5000018
:1000E00038C50000F005F305E205E605EC052A0633
:1000F000F705FB050106050609060F061306170698
:100100002A061D06210625060D11111111111111C6
:1001100011111111111109111111111111111111D7
:1001200011110B11E910EB10EB10EB10EB10EB10B1
:10013000EB10EB10EB1000002100240027002A0038
:100140002D003000330001010000040107010A0105
:1001500000002200250028002B002E003100340072
:1001600002010000050108010B010000200023002E
:10017000260029002C002F0032000001000003019E
:10018000060109010505050507050808080802021A
:1001900002020A0A08080404040401010101010121
:1001A00001010303030303030303040707070C0C04
:1001B0000C0C0C0C0C0C02020202060606060606CB
:1001C00006060B0B0B0B0B0B0B0B01021020200870
:1001D00008102040102040800201020108040201A2
:1001E0000102040810204080804020100804020111
:1001F000800402018040201008040201080402016A
:1002000001020408102040800102040810204080F0
:1002100000000A0B02090C0D0E0807030401000080
:1002200000000000000000000000000000000000CE
:10023000000000000000000000000000121110008B
:1002400000000000000000000000000000000000AE
:100250000000000000000000050720600000000012
:100260000000005F00000007000700147F147F14E7
:10027000242A7F2A1223130864623649552250002B
:1002800005030000001C2241000041221C00082A36
:100290001C2A0808083E080800503000000808081A
:1002A0000808006060000020100804023E51494523
:1002B0003E00427F400042615149462141454B3159
:1002C0001814127F1027454545393C4A49493001E9
:1002D000710905033649494936064949291E003640
:1002E0003600000056360000000814224114141491
:1002F00014144122140800020151090632497941BF
:100300003E7E1111117E7F494949363E41414122CD
:100310007F4141221C7F494949417F090901013E32
:10032000414151327F0808087F00417F4100204051
:10033000413F017F081422417F404040407F02043A
:10034000027F7F0408107F3E4141413E7F09090939
:10035000063E4151215E7F091929464649494931E6
:1003600001017F01013F4040403F1F2040201F7F8F
:100370002018207F63140814630304780403615178
:1003800049454300007F4141020408102041417F5C
:100390000000040201020440404040400001020409
:1003A0000020545454787F4844443838444444200E
:1003B000384444487F3854545418087E09010208D0
:1003C0001454543C7F0804047800447D40002040CD
:1003D000443D00007F10284400417F40007C041809
:1003E00004787C0804047838444444387C14141499
:1003F00008081414187C7C08040408485454542039
:10040000043F4440203C4040207C1C2040201C3CB9
:100410004030403C44281028440C5050503C446428
:10042000544C44000836410000007F000000413673
:10043000080008082A1C08081C2A08084040000078
:10044000000000000000804020202020204080008C
:1004500000000000000000000000C0E0E0E0C0007C
:10046000000000000000000000008000000000000C
:10047000000000000000000000000000000000007C
:10048000000000001C638000007F3E1C08008063A9
:100490001C000000000000C0F8FFFF7F0F7FFFFF7F
:1004A000F8C000000000008040203F204080000095
:1004B000000000000000000000000000000000003C
:1004C0000000000000C020118A8A8A8A8A1120C098
:1004D0000000000080F0FEFFFFFFE3E0E0E0E3FF4C
:1004E000FFFFFEF080000081422424244285282062
:1004F00038000000000000000000000000000000C4
:1005000000000000071820408F8888888F4020183E
:10051000070060FCFFFF3F0701010101010101012C
:1005200001073FFFFFFC60010204FC242221202080
:10053000202020202020202020202020202040407B
:10054000404040700C30C000C0300C30C000C030A3
:10055000080888482828382020408040201020980B
:1005600018C0C0000000203050488F8000000000FC
:10057000000000000000000000000000000000007B
:100580000000000000000003000000000001000067
:100590001C6380464A5262524A4680631C02010034
:1005A00001000000000008081414A2A2414100004C
:1005B000000000000000000000000000000000003B
:1005C000000000000000000000000000000000002B
:1005D000000000010202FE02020100000000000013
:1005E000000000000000020205FD00000000000005
:1005F00000000000000000000000000000000000FB
:1006000000000000000000000000000000000000EA
:10061000000000020A0A2B0A0A0200000000000083
:1006200000000000000002020A2B0A020200000083
:1006300000000000000000000000000000001E6C30
:100640000A0E206000010308070A080103030507DA
:100650000104010406030606070606060606010154
:10066000060606060D090708080707090701050819
:1006700007090709070908070707090D08090802FC
:10068000040205080206060506060406060102061F
:1006900001090606060604050406070906070603FF
:1006A00001030707FE141E001E0000009090F8963C
:1006B00090F89690001C00001C000000182422FFF7
:1006C0004242840810103C1008041C22221CC03036
:1006D0008C4240800000100C00000C10100C805C5C
:1006E0002262920C80000C101010100C08101E00DA
:1006F000F00C021C6080020CF080601C04140E14CC
:10070000040000000000404040F84040400000006D
:100710000C0000000070808080800000000000104D
:1007200000C0380618040000FC02020202FC0C1093
:100730001010100C0804FE00001C0C020282423C47
:100740001018141010100C02222222DC0C101010B1
:10075000100C8040300804FE0004040404041C044F
:100760003816121212E20C1010101804F84422224B
:1007700022C40C101010100C020202E21A06000033
:100780001C000000DC22222222DC0C101010100CB5
:100790003C42424222FC0810101008040810087065
:1007A00040A0A01010080000000404089090909051
:1007B0009090000000000000081010A0A040080465
:1007C000040000000C028242221C00001400000001
:1007D000E01804C422121212A2720408F00C304075
:1007E0004C909090889C90504C200080E09C829C83
:1007F000E08000180400000000000418FE222222FD
:100800002222DC1C10101010100CF804020202024C
:1008100004080408101010100804FE02020202026C
:1008200004F81C10101010100804FE2222222222AC
:10083000221C101010101010FE2222222222021C54
:10084000000000000000F804020202424244C80412
:100850000810101010100804FE2020202020FE1C7C
:1008600000000000001CFE1C00000000FE0C101028
:10087000100CFE804020508804021C000000000480
:100880000810FE0000000000001C101010101010D6
:10089000FE0C30C000C0300CFE1C00000418040028
:1008A000001CFE0418608000FE1C00000004081CF0
:1008B000F804020202020204F804081010101010DA
:1008C0000804FE42424242423C1C0000000000007C
:1008D000F804020202020204F804081010101408BE
:1008E0001C10FE424242C242423C1C000000000476
:1008F00008101C22222242428C0C10101010100CE6
:10090000020202FE0202020000001C000000FE00C3
:1009100000000000FE040810101008040618608093
:10092000008060180600000004180400000006386B
:10093000C000C03C023CC000C038060000041804DF
:100940000000000418040000020C906060900C028B
:10095000100C000000040C1002041820C020180421
:1009600002000000001C0000000000028242221A67
:1009700006021018141010101010FE02FC80063829
:10098000C0000000041802FE80FC201C021C200095
:100990000000000000000000000000008080808057
:1009A00080808080020400001088484848F00C10C5
:1009B0001010081CFE10080808F01C081010100C7D
:1009C000F0080808100C10101008F008080810FEB5
:1009D0000C101010081CF048484848700C101010FB
:1009E000100808FC0A0A001C0000F008080810F8AB
:1009F0004C909090887CFE10080808F01C000000C5
:100A0000001CFA1C00FA807CFE8040A010081C002C
:100A100000000C10FE1CF8100808F0100808F01C6C
:100A20000000001C0000001CF810080808F01C0062
:100A30000000001CF008080808F00C101010100C42
:100A4000F810080808F0FC081010100CF00808084E
:100A500010F80C10101008FCF81008081C0000001A
:100A60003048484890081010100C08FE0808001C78
:100A70001010F800000000F80C101010081C18608E
:100A800080008060180000041804000018E000E0F6
:100A900018E000E0180004180400041804000830EE
:100AA000C0C03008100C00000C101860800080607E
:100AB0001800808C700C000008088868180810184E
:100AC00014101010807C02007C80FEFC027C808070
:100AD0007C0040202060404020000000000000001A
:100AE000FC0404040404FC1C10101010101C3D1124
:100AF00011241FBECFEFD1E2DEBFCDBF00E00CBF9F
:100B000023E0A8E9B2E001C01D92AE37B207E1F7D9
:100B100012E0A0E0B2E0ECE4F4E200E00BBF02C0BF
:100B200007900D92A839B107D9F715E0C8E7D5E0CD
:100B300000E006C021970109802FFE010E941812D3
:100B4000C737D10780E00807A9F70E94470E0C9429
:100B5000241256CACF92DF92EF92FF920F931F9307
:100B6000CF93DF936C017A018B01C0E0D0E0CE150A
:100B7000DF0589F0D8016D918D01D601ED91FC91D1
:100B80000190F081E02DC6011995892B11F47E01A9
:100B900002C02196ECCFC701DF91CF911F910F9139
:100BA000FF90EF90DF90CF90089590E0FC01319797
:100BB000E231F10508F04EC08827EE58FF4F8F4F05
:100BC0000C941812809180008F7703C08091800070
:100BD0008F7D80938000089580918000877FF9CF7A
:100BE00084B58F7702C084B58F7D84BD08958091D0
:100BF000B0008F7703C08091B0008F7D8093B000EC
:100C00000895809190008F7707C0809190008F7D2C
:100C100003C080919000877F809390000895809119
:100C2000A0008F7707C08091A0008F7D03C08091C6
:100C3000A000877F8093A0000895809120018F7786
:100C400007C0809120018F7D03C080912001877FA4
:100C50008093200108953FB7F8948091A10290916C
:100C6000A202A091A302B091A40226B5A89B05C040
:100C70002F3F19F00196A11DB11D3FBFBA2FA92F1B
:100C8000982F8827820F911DA11DB11DBC01CD0198
:100C900042E0660F771F881F991F4A95D1F7089584
:100CA00080E090E008950E942012CF93DF93282FD8
:100CB00030E0F901E05FFD4F8491F901E653FE4F0A
:100CC000D491F901EC57FE4FC491CC2389F08111E6
:100CD0006CDFEC2FF0E0EE0FFF1FE659FE4FA59101
:100CE000B491EC91ED2381E090E021F480E002C02A
:100CF00080E090E0DF91CF9108951F93CF93DF9331
:100D0000282F30E0F901E05FFD4F8491F901E653AF
:100D1000FE4FD491F901EC57FE4FC491CC23C1F0A2
:100D2000162F811142DFEC2FF0E0EE0FFF1FE05B8A
:100D3000FE4FA591B4918FB7F894111105C09C9105
:100D4000ED2FE095E92302C0EC91ED2BEC938FBFE2
:100D5000DF91CF911F910895CF93DF9390E0FC0135
:100D6000E653FE4F2491FC01EC57FE4F84918823FB
:100D700061F190E0880F991FFC01EA5CFE4FC5917C
:100D8000D491FC01E05BFE4FA591B491611109C0C3
:100D90009FB7F8948881209582238883EC912E2335
:100DA0000BC0623061F49FB7F8943881822F809530
:100DB00083238883EC912E2B2C939FBF06C08FB783
:100DC000F894E8812E2B28838FBFDF91CF9108956F
:100DD0002FB7F89460919D0270919E0280919F02BE
:100DE0009091A0022FBF08951F920F920FB60F92FD
:100DF00011242F933F938F939F93AF93BF93809131
:100E00009D0290919E02A0919F02B091A00230910C
:100E10009C0223E0230F2D3720F40196A11DB11D64
:100E200005C026E8230F0296A11DB11D20939C0248
:100E300080939D0290939E02A0939F02B093A00284
:100E40008091A1029091A202A091A302B091A4026C
:100E50000196A11DB11D8093A1029093A202A093BF
:100E6000A302B093A402BF91AF919F918F913F9144
:100E70002F910F900FBE0F901F9018954498439A92
:100E80000895BF92CF92DF92EF92FF920F931F933C
:100E9000CF93DF938C01C62FF0909802F7FC8DC0A2
:100EA000F294F694F69483E0F82280919902877088
:100EB000E82E09F452C0C80105D1B82E6F2DC80123
:100EC00095D0419A42988FEF81B900C0409AD0E006
:100ED000CE2CD12C9E0101C0220FEA94EAF72B29D7
:100EE0008091B2028111209522B9C895C895000061
:100EF0004098E09099028E2D90E00896887F80348B
:100F0000910534F548E04E0D487F60919802C80184
:100F10009ED0C801D7D0B82E6F2DC80167D0419A96
:100F200042988FEF81B900C0409A28E030E02C1938
:100F30003D0902C0D595C7952A95E2F7CB29809146
:100F4000B2028111C095C2B9C895C89500004098F9
:100F5000609198026F5F4E2D25C06F2DC80146D05D
:100F6000419A42988FEF81B98091B2028111C09568
:100F700000C0409AC2B9C895C895000040986091D9
:100F800098026F5F60939802862F8295869586956A
:100F900083708F1591F067FD10C08FEF80939802DA
:100FA00040919902C801DF91CF911F910F91FF905D
:100FB000EF90DF90CF90BF904AC0DF91CF911F910B
:100FC0000F91FF90EF90DF90CF90BF900895FC01BC
:100FD00084910895089580E090E00895862F65CE6D
:100FE000862F642F8ACE862F642FB6CE613011F4FF
:100FF00045DF02C0449A439811B84198429A409AFA
:10100000C89500C00799FECF40980895CF93C62F8A
:10101000642FECDF419842988FEF81B9C2B900C0CC
:10102000409AC895C89500004098CF910895609166
:1010300098026295669566956370D8DF419A429AE8
:1010400000C0409AC89500C080B1409808950F93A1
:101050001F93CF93DF938C0180919802681304C093
:1010600080919902481749F167FD27C0403428F55F
:10107000942FC62F6093980240939902D62FD29551
:10108000D695D695D370969596959695ED2FF0E0DA
:10109000E856FD4F8281981731F09283692F686B73
:1010A0004D2FC801B3DF6C2F6F7360644D2FC801E3
:1010B000DF91CF911F910F91A9CFDF91CF911F9118
:1010C0000F910895FF920F931F93CF93DF931F9279
:1010D000CDB7DEB76091980267FD14C08C016983BB
:1010E000A6DFC801A4DFF82E8091B20269818111C8
:1010F000F0948FEF8093980240919902C801A7DF86
:101100008F2D01C080E00F90DF91CF911F910F9143
:10111000FF9008957F928F929F92AF92BF92CF924D
:10112000DF92EF92FF920F931F93CF93DF936C01A7
:10113000F62E041B0F5F261B99249394920E842F86
:101140008770142F181BA02EB12C28E030E0A901C5
:10115000481B5109A416B5065CF42A193B09CFEFC8
:10116000D0E002C0D595C7952A95E2F7802E04C03D
:1011700098E0892E881ACFEF01C0CC0F8A95EAF744
:101180007C2E412F6F2DC60162DFD0E0C095D915AE
:1011900068F4C60197DF9FEF682FE91202C0672944
:1011A00001C06C23C6016DDEDF5FF1CFC12F811A54
:1011B000282D2C0F822F90E0AC01495F5F4F4A151C
:1011C0005B056CF4C85F4C2F6F2DC60140DFD0E08B
:1011D000D91570F76E2DC60154DEDF5FF9CF2017E9
:1011E00008F5A81AB90A8FEF90E001C0880FAA94F9
:1011F000EAF7D82FD09548E04C0F6F2DC60127DFB6
:10120000C0E01D2F1095C91568F4C6015BDF9FEF84
:10121000682FE91202C06D2B01C06123C60131DEC7
:10122000CF5FF1CFDF91CF911F910F91FF90EF90A2
:10123000DF90CF90BF90AF909F908F907F90089558
:101240002F923F924F925F926F927F928F929F92D6
:10125000AF92BF92CF92DF92EF92FF920F931F93C4
:10126000CF93DF93CDB7DEB763970FB6F894DEBFA9
:101270000FBECDBFDC0115962D913C91169721151F
:10128000310519F480E090E028C4162F9B8B8A8BDF
:10129000603208F01DC26A3009F076C2E091C202E5
:1012A000F091C302C90103961995182FEA89FB89A9
:1012B00064852185621768F4458581E094819F3FAC
:1012C00009F480E0E82EE194012F040F8A899B89BC
:1012D00021DFAA89BB891B968C911B971D969C9137
:1012E0001D97212F30E08111FDC01A960C911A979D
:1012F000602F70E0220F331F290F311D261737078B
:101300000CF4E8C01E968C91811105C081E0EA8939
:10131000FB89868739C221E0290F201BA12EAA0C48
:10132000A20E91E0AA89BB8914968C918F3F09F493
:1013300090E0E92EE194EA89FB8981844085F78079
:101340008A2D90E0840F911D68177907BCF0242F37
:10135000277081E090E001C0880F2A95EAF7992470
:101360009A94980EF42FF87F7F2EBA2CB40E2B2D62
:10137000287F622ECC24C394D12C50C0282D6F2DF1
:101380008A899B89C7DE99C0232D30E0842D877020
:1013900002C0359527958A95E2F7352F377020FFE3
:1013A00007C0C601032E01C0880F0A94EAF7582A25
:1013B0004394842D877009F449C0373059F4452F80
:1013C000487F6F2D8A899B8942DE652D8A899B899A
:1013D00058DD512C542D5A190415B0F6452E4A0CDF
:1013E000252F2770541145C0C1F05150452F487F1B
:1013F0006F2D8A899B89298B2ADE8A899B8962DEE7
:101400002989B60101C0660F2A95EAF761958623FE
:10141000682F65298A899B8934DDF3948F1408F439
:101420004CC0472D6F2D8A899B8911DE8A899B8943
:1014300049DE582E59204B2C462D6F2D8A899B89C9
:1014400006DE8A899B893EDE382EC4CF4FE34415E1
:1014500008F4B3CF442D487F6F2D8A899B89388B40
:10146000598BF5DD8A899B892DDE382E598938897B
:10147000A4CF8FEFE81208C0C601022E01C0880F6A
:101480000A94EAF7582A08C0C601022E01C0880F44
:101490000A94EAF780955822273069F4452F487F4F
:1014A0006F2D8A899B89598BD2DD652D8A899B890D
:1014B000E8DC512C59895F5F93CFAA89BB891796C5
:1014C0008C9117971C968C931C971A968C911A974F
:1014D000811BFBC0EA89FB89878184879F5F910F0D
:1014E000958752C1AA89BB891896DC9018974D2D13
:1014F00050E0692F70E0240F351F261737075CF482
:1015000017968C9117971C968C931C979150911B52
:101510001D969C9339C1EA89FB898685882309F445
:10152000F5CE9F5F9D19190F91E084818F3F09F4DB
:1015300090E0E92EE194AA89BB891A960C911A973A
:1015400019969C9019971796FC90410F511D802F6A
:1015500090E084179507D4F0202F27702F5F81E04B
:1015600090E001C0880F2A95EAF7C82EC194202F79
:10157000287F2983702E711A372D387F532EAA2485
:10158000A394B12C81E0882E811A5FC0292D4D2DA6
:101590006F2D8A899B89BEDD8DC02A94822D87702C
:1015A000873051F4422D487F6F2D8A899B894FDD0A
:1015B0008A899B8987DD682E2D1420F1262D30E045
:1015C000822D877002C0359527958A95E2F7832D85
:1015D000877020FF07C09501082E01C0220F0A94D2
:1015E000EAF7422A81110BC0432D487F6F2D8A896B
:1015F0009B892DDD642D8A899B8943DC412C3A949B
:101600002110CBCF212E632C611A462D420D2110C3
:1016100034C0982D930D892F8770382EA9F0492F4B
:10162000487F6F2D8A899B8912DD8A899B894ADDD3
:10163000B50101C0660F3A94EAF761508623682F1E
:1016400064298A899B891DDCF3949F1498F1498150
:101650006F2D8A899B89FBDC8A899B8933DD482E23
:101660004C20272C452D6F2D8A899B89F0DC8A8997
:101670009B8928DD682E302E9FCF842F87705FEFE7
:10168000B501082E01C0660F0A94EAF7E51202C000
:10169000462A02C06095462281110AC0487F6F2DFC
:1016A0008A899B89D4DC642D8A899B89EADB412C59
:1016B0002A94ABCFAA89BB8917968C9117971C9651
:1016C0008C931C9718968C9118971D968C935CC0E0
:1016D000E091C202F091C302C90103961995C82E88
:1016E000EA89FB8985819681E091C202F091C3026B
:1016F00004961995082FAA89BB8915968D919C91FE
:101700001697E091C202F091C30205961995101741
:1017100008F4B8CD212F30E0A82EB12CA501400F40
:10172000511DC901841795070CF0ACCD2C2C312C20
:101730007101B7E0EB0EF11C23E0F594E7942A95D4
:10174000E1F7101BE091C202F091C302AA89BB89A4
:1017500015968D919C9116971995811118C0EA895B
:10176000FB8985819681E091C202F091C3020196C6
:101770001995882309F496C10AC01C968C911C9770
:101780008F5F080F1C960C9381E090E0A6C186E065
:10179000882E912C612C712CAA89BB8915968D916C
:1017A0009C911697E091C202F091C3022AEF280D96
:1017B000211748F4880D991D1995680E711CFFEFCB
:1017C0008F1A9F0AE9CF6E9C90016F9C300D7E9C12
:1017D000300D1124B6E0AB0EB11C3501620E731E44
:1017E000612F70E06A5F7F4F860F971F1995082F52
:1017F00021E02983AA89BB891E968C911E97882394
:1018000031F06AE0CD011CDDEA89FB891686AA89E0
:10181000BB891C968C911C97E02EF12C9701280F08
:10182000311D19968C91199790E0821793077CF4DB
:101830006AE0CD0105DDEA89FB898685882339F0D8
:101840006AE0CF01FDDCAA89BB891E961C9221E0CB
:101850002C0D2B8310E028E030E08C2D8770A9013F
:10186000481B51095F834E839701260D371D3F8723
:101870002E873B81832E912CAA24A394B12C2B81FB
:10188000AA89BB89121708F078CF1D96DC901D97A6
:10189000D10EDA824D2D487F1C966C911C97CD019C
:1018A000D6DB812F869586958695809F90011124A1
:1018B0003D832C83E12CF12C812F90E09C01287F2B
:1018C000A101421B530B598748872E853F854C81C8
:1018D0005D81240F351F3B872A879401281B390B14
:1018E0003D872C872A812770522EE01608F09CC075
:1018F0001C1520F52C813D81260D371D2E0D3F1D19
:10190000AA89BB8915968D919C911697E091C20288
:10191000F091C302820F931F1995682F298122230A
:1019200071F048855985483051054CF470E00E80BF
:1019300002C0759567950A94E2F701C060E0AA8934
:10194000BB8914968C91811101C06095D52C8A8138
:10195000812B877031F42C853D85283031050CF0C2
:1019600057C08A899B89688BADDB282F312F4A8429
:101970005B844E0C511C6889532F5770862F90E062
:10198000052E02C0959587950A94E2F780FF08C05E
:10199000C5010D2C01C0880F0A94EAF7282B08C056
:1019A000C5010D2C01C0880F0A94EAF78095282301
:1019B000573041F5AA89BB8915968D919C91169750
:1019C000E091C202F091C302840D951D298B388BE2
:1019D0001995682F298938895981552361F0C101EA
:1019E000831B910908973CF470E00E8002C0759546
:1019F00067950A94E2F7AA89BB8914968C918111A4
:101A000001C060953F5FD394B8E0DB1208C0622F3D
:101A10008A899B8936DA8FEFE81AF80A63CF5B81EF
:101A2000351708F4A9CFF3CFE12EF12C211105C011
:101A3000C4018E199F09089744F58A899B8942DB66
:101A4000552041F0B501052C01C0660F0A94EAF754
:101A5000615001C060E094012E193F092830310522
:101A60004CF4A50102C0440F551F2A95E2F79A01D4
:101A70002195622BAA89BB8914969C91911103C070
:101A80006095682B09C0682307C061E0EA89FB897B
:101A90008481811160E061958A899B89F2D9151949
:101AA000185FEDCEEA89FB8985819681E091C202BB
:101AB000F091C30202961995082F1E9D90011F9D5B
:101AC000300D1124029FC001039F900D11243C0191
:101AD000F6E06F0E711C19828DCE63960FB6F894E6
:101AE000DEBF0FBECDBFDF91CF911F910F91FF9051
:101AF000EF90DF90CF90BF90AF909F908F907F90AE
:101B00006F905F904F903F902F90089599CBFC017C
:101B1000138212828EE592E0918380831782108671
:101B20008FE781878FE38287138614861586168652
:101B3000089596E0899FD0011124AC53BD4F909633
:101B40007C936E935F9791E091969C93919790917F
:101B50003003E0913103F0913203992339F030974B
:101B600051F0811108C08091E00204C0309719F053
:101B70005C968C9119940895CF93DF932091B802CD
:101B80003091B9022115310529F1C62FD82FE091E6
:101B9000C202F091C302C90102961995D89FD00DD7
:101BA00011248091BA02D80FD093BF028091B8025D
:101BB0009091B902E091C202F091C3020396199587
:101BC000C89FC00D11246091BB02C60FC093C00214
:101BD0001092C102DF91CF9108950F931F93CF937D
:101BE000DF93C82FD62F86E0C89FF0011124EC5355
:101BF000FD4F11A2878D90A181309105E1F01CF479
:101C0000892B49F03FC08230910591F10397D1F5BE
:101C100060E070E031C06623A9F161E070E08C2FD4
:101C200088DFD6D860931C0370931D0380931E0336
:101C300090931F0327C0CCD800911C0310911D0363
:101C400020911E0330911F03AB01BC01401B510BBF
:101C5000620B730B80912E0390912F03A0E0B0E0F4
:101C600084179507A607B70718F462E070E004C070
:101C7000D11108C063E070E08C2FDF91CF911F91EC
:101C80000F9157CFDF91CF911F910F9108957894C5
:101C900084B5826084BD84B5816084BD85B5826071
:101CA00085BD85B5816085BD80916E008160809322
:101CB0006E0010928100809181008260809381008B
:101CC000809181008160809381008091800081609B
:101CD000809380008091B10084608093B1008091F6
:101CE000B00081608093B000809191008260809309
:101CF000910080919100816080939100809190008B
:101D00008160809390008091A10082608093A10007
:101D10008091A10081608093A1008091A0008160EA
:101D20008093A000809121018260809321018091A5
:101D30002101816080932101809120018160809345
:101D4000200180917A00846080937A0080917A00EB
:101D5000826080937A0080917A00816080937A001B
:101D600080917A00806880937A001092C100399A3D
:101D70003A9A389A40983C9A44983B9A43984198AA
:101D800042988FEF80939802809399021092B2024A
:101D90000E942B064B015C0162E3C62ED12CE12C84
:101DA000F12C0E942B06DC01CB0188199909AA09A4
:101DB000BB09883E9340A105B10558F021E0C21A45
:101DC000D108E108F10888EE880E83E0981EA11C76
:101DD000B11CC114D104E104F10419F70AE912E0BD
:101DE000C0E0DFEF449A439811B8D2B94198429AC3
:101DF000409AC89500C080B1409884FD21C087FDFD
:101E00001FC0F801D1938F014C2F6FE383EB92E059
:101E1000FDD84C2F60EC83EB92E0F8D8C13019F07C
:101E2000C1E02CD8E1CFE12C0FE32FE740E060E0E8
:101E300083EB92E06FD940E060E083EB92E007D95A
:101E40008CE394E09093A6028093A502E12C0FE32B
:101E50002FE740E060E083EB92E05CD98091BA022A
:101E60008093BF028091BB028093C0021092C10296
:101E700086E592E09093B9028093B80287EE97E0EE
:101E80009093C3028093C2028FEF8093B70260E009
:101E900080E072DE812C912C54018394EE24EA942C
:101EA000FE2C81E0809330030E94E806009120031D
:101EB000109121032091220330912303AB01BC0137
:101EC000401B510B620B730B80912C0390912D03DF
:101ED000A0E0B0E084179507A607B70708F00BC18C
:101EE000C0E080912A03C81760F4E0912603F091C6
:101EF0002703EC0FF11D62E080810E94AC06CF5FEA
:101F0000F0CF512C80912B03581608F067C0C52DD7
:101F1000D0E0E0912803F0912903EC0FFD1F61E070
:101F200080810E94AC06E0912803F0912903EC0F18
:101F3000FD1F60E080810E947D0695018401052CD3
:101F400004C0000F111F221F331F0A94D2F768012B
:101F500000951095412C80912A03481648F5642C71
:101F6000712CE0912603F0912703E60DF71D808187
:101F70000E94550693012C5F3F4F892B59F4C901EC
:101F8000880F991FFC01EC53FD4F808191818C29B2
:101F90009D290AC0C901880F991FFC01EC53FD4F10
:101FA0008081918180239123918380834394D3CF37
:101FB000E0912803F0912903EC0FFD1F61E080817F
:101FC0000E947D068091280390912903C80FD91F94
:101FD00060E088810E94AC06539494CFE0EEF2E07A
:101FE00083819481892B21F41082F282E18215820F
:101FF000369623E0EC31F20799F710E006E0809185
:102000002A03181708F051C0D12CC12FD0E0CC0FF3
:10201000DD1FC453DD4F20912B03D21608F043C0BF
:10202000688179810D2C02C0769567950A94E2F754
:1020300061707727129F900111242D0D311DE091C1
:102040002403F0912503E20FF31FA081E4ECF2E0FA
:1020500080E0458D568D4217530711F461701AC008
:102060008F5F36968A30A9F7672BD9F0E0EEF2E061
:1020700080E090E0408141110FC0089FF001099F6E
:10208000F00D1124EC53FD4FA48F368F258F10A235
:10209000178E61E0A2DD05C0019636968A30910563
:1020A00049F7D394B8CF1F5FAACF80E090E0C0E09B
:1020B000FC01EC53FD4F21A12111C1E006968C33A8
:1020C0009105B1F70E94E806609320037093210305
:1020D0008093220390932303CC2369F08091E5023F
:1020E000882349F08091E3029091E402019719F46A
:1020F000C091E00203C010923003C0E08091B002B2
:102100009091B10245976CF08091AE029091AF0230
:1021100001969093AF028093AE021092B10210929A
:10212000B002CC2321F18091AD02C81719F01092B2
:10213000AC0213C0C133D9F46091AE028091B002F9
:102140001BDDE091B302F091B4020190F081E02D2B
:102150006091AB0283EB92E019958091B00290916F
:10216000B10201969093B1028093B00214C06091C5
:10217000AE028091B00200DDE091B302F091B402B2
:102180000190F081E02D6091AB0283EB92E0199514
:10219000CC2309F448C00E942B066093A7027093D9
:1021A000A8028093A9029093AA0210920002C09301
:1021B000AD028C2F0C2E000C990BAA0BBB0BFC0153
:1021C000B397E731F10568F58827EC57FF4F8F4F3C
:1021D0002FC181E323C0EC2FEE0FFF0BEE54FE4F17
:1021E000A081B1818091AC02FD01E80FF11D9081C9
:1021F0009093AB028F5F8093AC02FD0101900020B1
:10220000E9F73197EA1BFB0B8E1768F01092AC02CE
:102210000AC08AE203C080E301C083E28093AB027C
:1022200002C01092AB020E942B060091A7021091EF
:10223000A8022091A9023091AA02DC01CB01801BE7
:10224000910BA20BB30B80349D40A340B10520F04D
:1022500080910002882341F080E090E0892B09F40E
:1022600020CE0E9400001DCE8EE78093AD0210921A
:10227000AC0281E080930002EFCFCF93DF9383EB3A
:1022800092E045DC80E392E09093B4028093B30245
:102290001092B2028FE693E03ADC82E493E037DCFE
:1022A00081E593E034DC80E693E031DC1092360384
:1022B000109235038EE592E09093340380933303BC
:1022C0008EE396E0909339038093380387EE97E08E
:1022D0009093C3028093C2028FEF80933703E0E4B0
:1022E000F6E0C491D0E0219681E496E00E94E707F1
:1022F0009C2F92509F3330F490E001962EEF280FE0
:102300002F3570F010923A0310923B038FE78093C1
:102310003C038FE380933D0310923E0380E00FC0A7
:1023200090E490933A0390E290933B03C15CC09396
:102330003C03815E80933D0310923E0381E090E474
:1023400090933F0390E290934003109241038111D8
:102350001FC010923A0310923B038FE780933C0317
:102360008FE380933D0310923E0310923F0310923F
:1023700040038EE396E0909339038093380387EE11
:1023800097E09093C3028093C2028FEF809337034C
:102390001092C6021092CA021092C9021092CB0289
:1023A0008CE392E09093C5028093C40280E090E0B9
:1023B000FC01EC53FD4F148E10A2178E11A206964D
:1023C0008C339105A9F784E092E0909327038093E2
:1023D000260381E092E0909329038093280384E010
:1023E00080932A0383E080932B0388E092E090930C
:1023F0002503809324038AE090E090932D0380933B
:102400002C0384EF91E090932F0380932E0310927E
:102410003203109231031092200310922103109284
:1024200022031092230310923003DF91CF9108957D
:10243000EE0FFF1F881F8BBF0790F691E02D1994B8
:0C24400081E090E0F89400C0F894FFCF19
:10244C0001090A0B070605043132333435363738A7
:10245C00392A3023660268026D02720277027C020E
:10246C00810287028C029202940296020000000004
:10247C00860DAA05EB07EA0700000000F307F0073A
:10248C00EE07000000005006AA05EB07EA07000063
:10249C0000005306AA05EB07EA0700000000860DB2
:1024AC00AA05EB07EA0731003241424300334445A9
:1024BC0046003447484900354A4B4C00364D4E4F88
:1024CC00003750515253003854555600395758590B
:0824DC005A002A003000230021
:00000001FF
